:020000040000fa
:080000000002040000000000f2
:020000040000fa
:04000800c80200002a
:020000040000fa
:04000c00c802000026
:020000040000fa
:04001000c802000022
:020000040000fa
:04001400c80200001e
:020000040000fa
:04001800c80200001a
:020000040000fa
:04001c00c802000016
:020000040000fa
:04002000c802000012
:020000040000fa
:04002400c80200000e
:020000040000fa
:04002800c80200000a
:020000040000fa
:04002c00c802000006
:020000040000fa
:04003000c802000002
:020000040000fa
:04003400c8020000fe
:020000040000fa
:04003800c8020000fa
:020000040000fa
:04003c00c8020000f6
:020000040000fa
:04004000c8020000f2
:020000040000fa
:04004400c8020000ee
:020000040000fa
:04004800c8020000ea
:020000040000fa
:04004c00c8020000e6
:020000040000fa
:04005000c8020000e2
:020000040000fa
:04005400c8020000de
:020000040000fa
:04005800c8020000da
:020000040000fa
:04005c00c8020000d6
:020000040000fa
:04006000c8020000d2
:020000040000fa
:04006400c8020000ce
:020000040000fa
:04006800c8020000ca
:020000040000fa
:04006c00c8020000c6
:020000040000fa
:04007000c8020000c2
:020000040000fa
:04007400c8020000be
:020000040000fa
:04007800c8020000ba
:020000040000fa
:04007c00c8020000b6
:020000040000fa
:04008000c8020000b2
:020000040000fa
:04008400c8020000ae
:020000040000fa
:04008800c8020000aa
:020000040000fa
:04008c00c8020000a6
:020000040000fa
:04009000c8020000a2
:020000040000fa
:04009400c80200009e
:020000040000fa
:04009800c80200009a
:020000040000fa
:04009c00c802000096
:020000040000fa
:0400a000c802000092
:020000040000fa
:0400a400c80200008e
:020000040000fa
:0400a800c80200008a
:020000040000fa
:0400ac00c802000086
:020000040000fa
:0400b000c802000082
:020000040000fa
:0400b400c80200007e
:020000040000fa
:0400b800c80200007a
:020000040000fa
:0400bc00c802000076
:020000040000fa
:0400c000c802000072
:020000040000fa
:0400c400c80200006e
:020000040000fa
:0400c800c80200006a
:020000040000fa
:0400cc00c802000066
:020000040000fa
:0400d000c802000062
:020000040000fa
:0400d400c80200005e
:020000040000fa
:0400d800c80200005a
:020000040000fa
:0400dc00c802000056
:020000040000fa
:0400e000c802000052
:020000040000fa
:0400e400c80200004e
:020000040000fa
:0400e800c80200004a
:020000040000fa
:0400ec00c802000046
:020000040000fa
:0400f000c802000042
:020000040000fa
:0400f400c80200003e
:020000040000fa
:0400f800c80200003a
:020000040000fa
:0400fc00c802000036
:020000040000fa
:04010000c802000031
:020000040000fa
:04010400c80200002d
:020000040000fa
:04010800c802000029
:020000040000fa
:04010c00c802000025
:020000040000fa
:04011000c802000021
:020000040000fa
:04011400c80200001d
:020000040000fa
:04011800c802000019
:020000040000fa
:04011c00c802000015
:020000040000fa
:04012000c802000011
:020000040000fa
:04012400c80200000d
:020000040000fa
:04012800c802000009
:020000040000fa
:04012c00c802000005
:020000040000fa
:04013000c802000001
:020000040000fa
:04013400c8020000fd
:020000040000fa
:04013800c8020000f9
:020000040000fa
:04013c00c8020000f5
:020000040000fa
:04014000c8020000f1
:020000040000fa
:04014400c8020000ed
:020000040000fa
:04014800c8020000e9
:020000040000fa
:04020800c802000028
:020000040000fa
:04020c00c802000024
:020000040000fa
:04021000c802000020
:020000040000fa
:04021400c80200001c
:020000040000fa
:04021800c802000018
:020000040000fa
:04021c00c802000014
:020000040000fa
:04022000c802000010
:020000040000fa
:04022400c80200000c
:020000040000fa
:04022800c802000008
:020000040000fa
:04022c00c802000004
:020000040000fa
:04023000c802000000
:020000040000fa
:04023400c8020000fc
:020000040000fa
:04023800c8020000f8
:020000040000fa
:04023c00c8020000f4
:020000040000fa
:04024000c8020000f0
:020000040000fa
:04024400c8020000ec
:020000040000fa
:04024800c8020000e8
:020000040000fa
:04024c00c8020000e4
:020000040000fa
:04025000c8020000e0
:020000040000fa
:04025400c8020000dc
:020000040000fa
:04025800c8020000d8
:020000040000fa
:04025c00c8020000d4
:020000040000fa
:04026000c8020000d0
:020000040000fa
:04026400c8020000cc
:020000040000fa
:04026800c8020000c8
:020000040000fa
:04026c00c8020000c4
:020000040000fa
:04027000c8020000c0
:020000040000fa
:04027400c8020000bc
:020000040000fa
:04027800c8020000b8
:020000040000fa
:04027c00c8020000b4
:020000040000fa
:04028000c8020000b0
:020000040000fa
:04028400c8020000ac
:020000040000fa
:04028800c8020000a8
:020000040000fa
:04028c00c8020000a4
:020000040000fa
:04029000c8020000a0
:020000040000fa
:04029400c80200009c
:020000040000fa
:04029800c802000098
:020000040000fa
:04029c00c802000094
:020000040000fa
:0402a000c802000090
:020000040000fa
:0402a400c80200008c
:020000040000fa
:0402a800c802000088
:020000040000fa
:0402ac00c802000084
:020000040000fa
:0402b000c802000080
:020000040000fa
:0402b400c80200007c
:020000040000fa
:0402b800c802000078
:020000040000fa
:0402bc00c802000074
:020000040000fa
:0402c000c802000070
:020000040000fa
:0402c400c80200006c
:020000040000fa
:0402c800c802000068
:020000040000fa
:0402cc00c802000064
:020000040000fa
:0402d000c802000060
:020000040000fa
:0402d400c80200005c
:020000040000fa
:0402d800c802000058
:020000040000fa
:0402dc00c802000054
:020000040000fa
:0402e000c802000050
:020000040000fa
:0402e400c80200004c
:020000040000fa
:0402e800c802000048
:020000040000fa
:0402ec00c802000044
:020000040000fa
:0402f000c802000040
:020000040000fa
:0402f400c80200003c
:020000040000fa
:0402f800c802000038
:020000040000fa
:0402fc00c802000034
:020000040000fa
:04030000c80200002f
:020000040000fa
:04030400c80200002b
:020000040000fa
:04030800c802000027
:020000040000fa
:04030c00c802000023
:020000040000fa
:04031000c80200001f
:020000040000fa
:04031400c80200001b
:020000040000fa
:04031800c802000017
:020000040000fa
:04031c00c802000013
:020000040000fa
:04032000c80200000f
:020000040000fa
:04032400c80200000b
:020000040000fa
:04032800c802000007
:020000040000fa
:04032c00c802000003
:020000040000fa
:04033000c8020000ff
:020000040000fa
:04033400c8020000fb
:020000040000fa
:04033800c8020000f7
:020000040000fa
:04033c00c8020000f3
:020000040000fa
:04034000c8020000ef
:020000040000fa
:04034400c8020000eb
:020000040000fa
:04034800c8020000e7
:020000040000fa
:100400002f8020000e7f22000e01880000000000d7
:10041000000020000000e000020032000001200087
:1004200020028800140007005b0007000000e000c5
:1004300003003a00e06420000100200002003700c1
:100440000000200001002000810f70000100320038
:1004500014000700000020000000e000020032004d
:100460000000020000000000a804020000000000dc
:100470000040da000000fe004440a90040052000d2
:100480000000e0000300320000002000a00188000e
:100490004440a800000006008a1f78008b1f7800e7
:1004a0000000060091018800800478000000eb0045
:1004b0001a003700e284440032a0b4009905ba0063
:1004c000e284440032a0b4009906ba00e2844400f9
:1004d00032a0b4000006eb00476fde00fd07b2005b
:1004e000636ce10003003a00ebff07000000eb0043
:1004f0000a003700606ce10004003a00005deb0088
:100500008b05e900fdff3e00040037006168e10053
:10051000010032000086eb000b00070019c7ba008b
:100520001905ba000e04e00003003a000a00e000da
:10053000e0ff3a0000000600fe07b2009e018800be
:100540008a047800f5ff3700395dba008b05e900b1
:100550000c003200295dba008b05e900080032006a
:100560000c00e00003003a00e284440032a0b40032
:10057000f5ff370019ddba008b05e900faff3a00f4
:100580008904e800e184440032a0b40000000600c1
:0c0590000040da000000fe000000050042
:020000040000fa
:10059c000c0000007c0200009400000034000000fd
:1005ac006402000024010000040100007c00000033
:1005bc0004000000240000004400000004030000bc
:1005cc008c0100001402000084010000c401000032
:1005dc00f8030000453700003431000030380000cb
:1005ec003532000046390000363300006443000009
:1005fc00624100000c0000007c020000940000002e
:10060c00340000006402000024010000040100001a
:10061c007c000000040000002400000044000000e6
:10062c00040300008c01000014020000840100008f
:08063c00c4010000f8030000f6
:020000040000fa
:100644000000fa000180200000c3b300540007003a
:10065400a00f2000820107000140200010c3b30056
:100664004f000700a00f20007d010700018020003b
:1006740020c3b3004a000700a00f20007801070040
:100684000140200030c3b30045000700a00f200044
:10069400730107000180200040c3b300400007003d
:1006a400a00f20006e0107000140200050c3b300da
:1006b4003b000700a00f2000690107000180200013
:1006c40060c3b30036000700a00f200064010700d8
:1006d4000140200070c3b30031000700a00f2000c8
:1006e4005f0107000180200080c3b3002c000700d5
:1006f400a00f20005a0107000140200090c3b3005e
:1007040027000700a00f20005501070001802000ea
:1007140010c4b30022000700a00f200050010700fe
:100724000140200020c6b3001d000700a00f2000d8
:100734004b0107000180200030c4b30018000700fb
:10074400a00f2000460107000140200040c6b3006e
:1007540013000700a00f20004101070001802000c2
:1007640050c4b3000e000700a00f20003c01070096
:100774000140200060c4b30009000700a00f20005e
:100784003701070001802000e0c2b3000400070025
:10079400a00f2000320107000080fa0000000600cc
:1007a4000400fa00004f78001107980061168000d9
:1007b40030002f0000806000601688001e00fb00df
:1007c40061042000810f50000d003c005104200002
:1007d400810f50001c003d0011042000810f5000c7
:1007e4001900320031042000810f5000160032003d
:1007f400e1022000810f50001f0032002a00370060
:1008040021062000810f5000030032004106200021
:10081400810f500024003a001e00fb007005b10057
:1008240080004000003028000080400090007800e4
:100834001e009000810070006016800001007000ae
:1008440060168800230037001e00fb007003b1000f
:1008540080004000003028000080400090007800b4
:100864001e0090008100700060168000010070007e
:1008740060168800170037001e00fb007e00500041
:100884008000400000302800008040009000780084
:100894001e0090008100700060168000010070004e
:1008a400601688000b0037001e00fb000003b10037
:1008b4008000400000302800008040009000780054
:1008c4001e0090008100700060168000010070001e
:1008d400601688000080fa00000006000000fa009c
:1008e4004116800030002f00008060004016880010
:1008f40061168000c0ff20000100700060168800af
:100904000080fa00000006000000fa00213a80008e
:10091400f08f2f0000806000203a8800f0ff29004b
:1009240060198800edff0700bc0007000421ef00f8
:10093400f0e72300100888000021ef008460a9007c
:1009440005e1a8000080fa00000006001800fa0083
:10095400edff070066004700012f28000f00090083
:10096400315878000040eb00004f78000040eb0065
:10097400104798000080eb00100798000100370032
:100984000000000071000700200798002e0090006e
:100994000000e00041003500ae0090001e00900011
:1009a400808f50003d0032002e01900070662600ba
:1009b4000090b900c288de004f90de0080805000b5
:1009c400706626000089b9004299de004f88de0077
:1009d40000005100300f98003e0a90006a21b900cf
:1009e4000200780000805000300f98002e01900023
:1009f400a100200081017800110009000301d80042
:100a04003e0a90004220dd00010040000000470043
:100a1400e0409000114798001e0090000000e000a4
:100a24001c0035001e019000706626000090b9007d
:100a3400c288de004f90de00808050007066260081
:100a44000089b9004299de004f88de0000005100a1
:100a5400300f98003e0a90006a21b9000200780025
:100a640000805000300f98001e019000a10020006b
:100a740081017800110009000301d8003e0a9000aa
:100a84004220dd000100400000004700e0409000eb
:100a9400014f78002e019000120798001e4090002c
:100aa4000004e00005003200018020001e40900098
:100ab4003bff070050002000690007001e4078003b
:100ac4000004e000aeff3200014020001e40780028
:100ad40033ff07005000200061000700a9ff370022
:100ae4000600fa002007980070ff2f00000f78001e
:100af4000000eb00100798000e003700101680006d
:100b04001e007000e10f4000020032001e00900041
:100b14000c0037001e0078000000d100000f7800a0
:100b2400000028001e0f40001e0090000000e80096
:100b3400100798001e009000e30f5000efff3400f0
:100b44000080eb000080fa00000006000600fa00b6
:100b5400f0ff2700000f78000000eb00100798005a
:100b6400280037006116800000002f00010070008b
:100b740060168800601680001e0060006016880001
:100b84001e009000d6ff0700200798000040800058
:100b9400ae009000808f5000100032001e009000c4
:100ba400cfff0700200798002e0090000000e0000f
:100bb4000a00350061168000f0ff2000008060000c
:100bc400601688002e0090006a00b900800078004a
:100bd4001e009000008040000e003700ae00900020
:100be400014088001e0078000000d100000f78004a
:100bf400000028001e0f40001e0090000000e800c6
:100c0400100798001e009000e30f5000d5ff340039
:100c14000080eb000080fa00000006000000fa00eb
:100c240000168000f000b300001688004116800012
:100c3400f0ff200000806000401688004003800020
:100c4400c000b30040038800510380000000260068
:100c540001007000500388000080fa0000000600c4
:100c64000400fa00100798000000eb00000f780061
:100c740003003700793e0900000000001e0fe80061
:100c84009e0078001e009000808f5000f9ff39000c
:080c94000080fa0000000600d8
:020000040000fa
:100c9c00000800000200000002000000ffff00003e
:040cac000000000044
:020000040000fa
:020000040001f9
:0457f8000ff90000a5
:020000040000fa
:020000040001f9
:0457fc007f3f0000eb
:00000001FF
