:020000040000fa
:080000000002040000000000f2
:020000040000fa
:04000800e202000010
:020000040000fa
:04000c00e20200000c
:020000040000fa
:04001000e202000008
:020000040000fa
:04001400e202000004
:020000040000fa
:04001800e202000000
:020000040000fa
:04001c00e2020000fc
:020000040000fa
:04002000e2020000f8
:020000040000fa
:04002400e2020000f4
:020000040000fa
:04002800e2020000f0
:020000040000fa
:04002c00e2020000ec
:020000040000fa
:04003000e2020000e8
:020000040000fa
:04003400e2020000e4
:020000040000fa
:04003800e2020000e0
:020000040000fa
:04003c00e2020000dc
:020000040000fa
:04004000e2020000d8
:020000040000fa
:04004400c8020000ee
:020000040000fa
:04004800e2020000d0
:020000040000fa
:04004c00e2020000cc
:020000040000fa
:04005000e2020000c8
:020000040000fa
:04005400e2020000c4
:020000040000fa
:04005800e2020000c0
:020000040000fa
:04005c00e2020000bc
:020000040000fa
:04006000e2020000b8
:020000040000fa
:04006400e2020000b4
:020000040000fa
:04006800e2020000b0
:020000040000fa
:04006c00e2020000ac
:020000040000fa
:04007000e2020000a8
:020000040000fa
:04007400e2020000a4
:020000040000fa
:04007800e2020000a0
:020000040000fa
:04007c00e20200009c
:020000040000fa
:04008000e202000098
:020000040000fa
:04008400e202000094
:020000040000fa
:04008800e202000090
:020000040000fa
:04008c00e20200008c
:020000040000fa
:04009000e202000088
:020000040000fa
:04009400e202000084
:020000040000fa
:04009800e202000080
:020000040000fa
:04009c00e20200007c
:020000040000fa
:0400a000e202000078
:020000040000fa
:0400a400e202000074
:020000040000fa
:0400a800e202000070
:020000040000fa
:0400ac00e20200006c
:020000040000fa
:0400b000e202000068
:020000040000fa
:0400b400e202000064
:020000040000fa
:0400b800e202000060
:020000040000fa
:0400bc00e20200005c
:020000040000fa
:0400c000e202000058
:020000040000fa
:0400c400e202000054
:020000040000fa
:0400c800e202000050
:020000040000fa
:0400cc00e20200004c
:020000040000fa
:0400d000e202000048
:020000040000fa
:0400d400e202000044
:020000040000fa
:0400d800e202000040
:020000040000fa
:0400dc00e20200003c
:020000040000fa
:0400e000e202000038
:020000040000fa
:0400e400e202000034
:020000040000fa
:0400e800e202000030
:020000040000fa
:0400ec00e20200002c
:020000040000fa
:0400f000e202000028
:020000040000fa
:0400f400e202000024
:020000040000fa
:0400f800e202000020
:020000040000fa
:0400fc00e20200001c
:020000040000fa
:04010000e202000017
:020000040000fa
:04010400e202000013
:020000040000fa
:04010800e20200000f
:020000040000fa
:04010c00e20200000b
:020000040000fa
:04011000e202000007
:020000040000fa
:04011400e202000003
:020000040000fa
:04011800e2020000ff
:020000040000fa
:04011c00e2020000fb
:020000040000fa
:04012000e2020000f7
:020000040000fa
:04012400e2020000f3
:020000040000fa
:04012800e2020000ef
:020000040000fa
:04012c00e2020000eb
:020000040000fa
:04013000e2020000e7
:020000040000fa
:04013400e2020000e3
:020000040000fa
:04013800e2020000df
:020000040000fa
:04013c00e2020000db
:020000040000fa
:04014000e2020000d7
:020000040000fa
:04014400e2020000d3
:020000040000fa
:04014800e2020000cf
:020000040000fa
:04020800e20200000e
:020000040000fa
:04020c00e20200000a
:020000040000fa
:04021000e202000006
:020000040000fa
:04021400e202000002
:020000040000fa
:04021800e2020000fe
:020000040000fa
:04021c00e2020000fa
:020000040000fa
:04022000e2020000f6
:020000040000fa
:04022400e2020000f2
:020000040000fa
:04022800e2020000ee
:020000040000fa
:04022c00e2020000ea
:020000040000fa
:04023000e2020000e6
:020000040000fa
:04023400e2020000e2
:020000040000fa
:04023800e2020000de
:020000040000fa
:04023c00e2020000da
:020000040000fa
:04024000e2020000d6
:020000040000fa
:04024400e2020000d2
:020000040000fa
:04024800e2020000ce
:020000040000fa
:04024c00e2020000ca
:020000040000fa
:04025000e2020000c6
:020000040000fa
:04025400e2020000c2
:020000040000fa
:04025800e2020000be
:020000040000fa
:04025c00e2020000ba
:020000040000fa
:04026000e2020000b6
:020000040000fa
:04026400e2020000b2
:020000040000fa
:04026800e2020000ae
:020000040000fa
:04026c00e2020000aa
:020000040000fa
:04027000e2020000a6
:020000040000fa
:04027400e2020000a2
:020000040000fa
:04027800e20200009e
:020000040000fa
:04027c00e20200009a
:020000040000fa
:04028000e202000096
:020000040000fa
:04028400e202000092
:020000040000fa
:04028800e20200008e
:020000040000fa
:04028c00e20200008a
:020000040000fa
:04029000e202000086
:020000040000fa
:04029400e202000082
:020000040000fa
:04029800e20200007e
:020000040000fa
:04029c00e20200007a
:020000040000fa
:0402a000e202000076
:020000040000fa
:0402a400e202000072
:020000040000fa
:0402a800e20200006e
:020000040000fa
:0402ac00e20200006a
:020000040000fa
:0402b000e202000066
:020000040000fa
:0402b400e202000062
:020000040000fa
:0402b800e20200005e
:020000040000fa
:0402bc00e20200005a
:020000040000fa
:0402c000e202000056
:020000040000fa
:0402c400e202000052
:020000040000fa
:0402c800e20200004e
:020000040000fa
:0402cc00e20200004a
:020000040000fa
:0402d000e202000046
:020000040000fa
:0402d400e202000042
:020000040000fa
:0402d800e20200003e
:020000040000fa
:0402dc00e20200003a
:020000040000fa
:0402e000e202000036
:020000040000fa
:0402e400e202000032
:020000040000fa
:0402e800e20200002e
:020000040000fa
:0402ec00e20200002a
:020000040000fa
:0402f000e202000026
:020000040000fa
:0402f400e202000022
:020000040000fa
:0402f800e20200001e
:020000040000fa
:0402fc00e20200001a
:020000040000fa
:04030000e202000015
:020000040000fa
:04030400e202000011
:020000040000fa
:04030800e20200000d
:020000040000fa
:04030c00e202000009
:020000040000fa
:04031000e202000005
:020000040000fa
:04031400e202000001
:020000040000fa
:04031800e2020000fd
:020000040000fa
:04031c00e2020000f9
:020000040000fa
:04032000e2020000f5
:020000040000fa
:04032400e2020000f1
:020000040000fa
:04032800e2020000ed
:020000040000fa
:04032c00e2020000e9
:020000040000fa
:04033000e2020000e5
:020000040000fa
:04033400e2020000e1
:020000040000fa
:04033800e2020000dd
:020000040000fa
:04033c00e2020000d9
:020000040000fa
:04034000e2020000d5
:020000040000fa
:04034400e2020000d1
:020000040000fa
:04034800e2020000cd
:020000040000fa
:100400002f8020000e7f22000e01880000000000d7
:10041000000020000000e000020032000001200087
:100420002002880014000700680007000000e000b8
:1004300003003a00806d2000010020000200370018
:100440000000200001002000810f70000100320038
:1004500014000700000020000000e000020032004d
:100460000000020000000000f4050200000000008f
:100470000040da000000fe004440a9000000200017
:100480000000e0000300320000002000a00188000e
:100490004440a800000006008a1f78008b1f7800e7
:1004a0000000060091018800800478000000eb0045
:1004b0001a003700e284440032a0b4009905ba0063
:1004c000e284440032a0b4009906ba00e2844400f9
:1004d00032a0b4000006eb00476fde00fd07b2005b
:1004e000636ce10003003a00ebff07000000eb0043
:1004f0000a003700606ce10004003a00005deb0088
:100500008b05e900fdff3e00040037006168e10053
:10051000010032000086eb000b00070019c7ba008b
:100520001905ba000e04e00003003a000a00e000da
:10053000e0ff3a0000000600fe07b2009e018800be
:100540008a047800f5ff3700395dba008b05e900b1
:100550000c003200295dba008b05e900080032006a
:100560000c00e00003003a00e284440032a0b40032
:10057000f5ff370019ddba008b05e900faff3a00f4
:100580008904e800e184440032a0b40000000600c1
:10059000801f78003400f80000002000a0018800cf
:1005a0000000fa00004080000000e80000408800e1
:1005b00084e0a9000080fa003400f9004f007800c0
:1005c000004006000040da000000fe0000000500c8
:1005d000889fbe008a9fbe008c1f7800960007008f
:1005e0009d00330003866c006450e1002e00320051
:1005f0006420e100330032006150e1002f0032003e
:100600006120e1003100320085855500eb07b00024
:1006100009002000080420000500370008044400f9
:1006200089844c000a0031000603430087834b0095
:100630000001530081815b00f8ff33000203be001c
:100640000800a0000804440089844c00f6ff39002b
:10065000c639dd0083017300010032001300200061
:100660008904d1000884d3000998a3000500320052
:100670000800a7000300a0008904d1000884d3006b
:100680008b05e8008904d1000884d3000001eb0049
:100690000281d2002d00070001f0a1000cf0a7009c
:1006a00001f0a000750037006420e10077003200ff
:1006b0000801be000200be00f7ff37006120e10024
:1006c000720032006000b800f3ff37000000200025
:1006d00001f82700f0ff37000001be0041000700cd
:1006e0000470a70003f0a10003f8a30013003a0070
:1006f0006509b10010003200090035006928e100e9
:100700000200350001002800000005000000400044
:10071000818048008502e900fcff3a0000000600e5
:10072000f88f4200050035008100d1000080d30021
:100730008502e800fcff3a00000006008000eb00a4
:10074000000005006011b80087003700810020001c
:10075000618055000b003d000b00200061fe2f0062
:100760000100e1001d00340082817100610164001c
:100770008904d1000884d3000000e800faff3a00a1
:10078000710020006100640003007000020060003e
:100790000900320061044400e0844c000988a5008f
:1007a000050032008b05e8006808e10002003a000d
:1007b0008904d1000884d300f20f20000258e10020
:1007c00005003d00c75ddd00f907b20089807500b6
:1007d00008007800000006000bf827008b00780066
:1007e00000000500c70ade00f107b200f50fb200f5
:1007f00008003200e1cf4200020032000170a00088
:1008000024000500810f700001003200040805007b
:1008100044000500810f700002003a00140005003a
:100820008502e9000000400081c04800fcff3b0059
:100830000170a000240005000004be00e9ff0700cd
:100840000003be000405be000200be00e5ff070075
:10085000844f7500000006000200be006450e100f5
:10086000050036006420e100020036000968a3009c
:1008700001003a000800be000160a0004f067800a9
:100880004f05be004f04be0000000600f0ff2f0021
:10089000f1ff2700f9ff3700889fbe008a9fbe0046
:1008a0008c1f7800e4ff0700ebff330003866c0029
:1008b0006450e100240032006420e100270032008f
:1008c0006150e100220032006120e100210032008d
:1008d0008b854200eb07b1000134b800003ab80044
:1008e0000804420089844a00013ab8000030b80088
:1008f0008880400009014a000400330000004000e5
:1009000081804800020149008b05e900c909dd002a
:10091000830170000100320013002000c814de00c3
:100920004814dd004709de001200b200c808de00ee
:100930000884700085ff070001f0a1000cf0a700fb
:1009400001f0a000cdff37006120e100cfff3200b1
:100950000801be000200be00f7ff37006150e10051
:10096000fcff3a00c9ff3700889fbe008a9fbe0087
:1009700000827000040271000482710026003200bf
:100980000004be000200be006011b8006b09200028
:10099000950220000182cf000a0039000541b10014
:1009a0000082cf00070039000541b1000982cf0065
:1009b000040039000541b1000882cf000100390070
:1009c0000541b10005425200120032000a003b000e
:1009d00082817100610164008100d1000080d30038
:1009e0008984d3000884d3008b05e8000442e80022
:1009f000f7ff3a00070037000804440089844c00e0
:100a000000004800818048008b05e9000442e900ad
:100a1000f9ff3a004dff07004f05be004f04be002e
:040a200000000600cc
:020000040000fa
:100a24000400fa00100798000000eb00000f7800a3
:100a340003003700793e0900000000001e0fe800a3
:100a44009e0078001e009000808f5000f9ff39004e
:100a54000080fa00000006000400fa00889fbe002f
:100a6400008fbe0002002000031a24001e00be00f6
:100a7400d6fe07000004be00700880008000eb0072
:100a84002fff07000001be000800be0081ff070021
:100a940010ff070000007800000c88004f04be001f
:100aa4000080fa00000006000000fa001221ef00a6
:100ab40000c42900700888000a21ef008500a900fd
:100ac4001281a80012a1a90013e1a800113a800024
:100ad400f00b2000008160006004200071052000fc
:100ae4002374200080497800814978008249780085
:100af4003136800000fe2f00008060002001b3002a
:100b040030368800103a8000000178000260a000ae
:100b140060042000710520002374200080497800bf
:100b240081497800824978008421ef00204d20001b
:100b3400100c8800204d2000000c8800210c80003f
:100b440080ff2f00008060006000b300200c88004c
:100b54008461a8000080fa00000006000000fa008a
:100b64001021ef0040422f00600888000621ef00aa
:100b740084e0a90094e0a80031058000f0ff28007b
:100b840080806000000023000100700030058800b0
:100b940081088000000320000100700080088800a4
:100ba40011e1a8006ac0a8000080fa000000060055
:100bb4000000fa00213a8000f08f2f0000806000ce
:100bc400203a8800f0ff290060198800c8c2a900f3
:100bd400c902a800b4ff0700e0ff07000080fa0084
:100be400000006001400fa00889fbe00f0ff070012
:100bf40000002000010a240097ff0700007d200068
:100c040087ff0700000020000117240092ff07005f
:100c1400007d200082ff0700a099290091f923009c
:100c24008dff070010002000000f78001000200046
:100c3400500798006000b80010079800210798003a
:100c44006000b80060079800710798006000b80061
:100c540030079800410798006000b800000f980022
:100c6400110f9800300880006103b8000040800034
:100c74006101b800600880008000eb00009ab900b0
:100c840004027800028cb900880278000502420050
:100c94000010b80001024200840078000600400001
:100ca40087804800000f9800110f98009e0078007c
:100cb40051079800501680004800de006140600033
:100cc4000080fb00000f78001e0078000000e000a8
:100cd4001d003a005e0090000000e0001a0032009f
:100ce4003e019000ce0190006207980073079800bf
:100cf4000e0990009e09900032079800430798005f
:100d04003e019000ce0190006e009000fe00900025
:100d1400000151008181590090d02300010020007e
:100d2400800f5100818f590007003e003e01900062
:100d3400ce019000120798002307980060662600f1
:100d440061fe230044ff07001e009000ae009000e7
:100d5400e00f5000e08f5800110032000e0990009f
:100d64009e0990001e009000ae009000000151000a
:100d74008181590080842e0011002000800f5100d1
:100d8400818f590006003600a099290091f92300ab
:100d940031ff07006000b800100798002107980091
:0c0da400200020001eff0700aeff3700fb
:020000040000fa
:100db0000008000002000000000000000000000029
:020000040000fa
:020000040001f9
:0457f8000ff90000a5
:020000040000fa
:020000040001f9
:0457fc007f3f0000eb
:00000001FF
