:020000040000fa
:080000000002040000000000f2
:020000040000fa
:0400080046030000ab
:020000040000fa
:04000c0046030000a7
:020000040000fa
:0400100046030000a3
:020000040000fa
:04001400460300009f
:020000040000fa
:04001800460300009b
:020000040000fa
:04001c004603000097
:020000040000fa
:040020004603000093
:020000040000fa
:04002400460300008f
:020000040000fa
:04002800460300008b
:020000040000fa
:04002c00e2020000ec
:020000040000fa
:040030004603000083
:020000040000fa
:04003400460300007f
:020000040000fa
:04003800460300007b
:020000040000fa
:04003c004603000077
:020000040000fa
:040040004603000073
:020000040000fa
:04004400c8020000ee
:020000040000fa
:04004800460300006b
:020000040000fa
:04004c004603000067
:020000040000fa
:040050004603000063
:020000040000fa
:04005400460300005f
:020000040000fa
:04005800460300005b
:020000040000fa
:04005c004603000057
:020000040000fa
:040060004603000053
:020000040000fa
:04006400460300004f
:020000040000fa
:04006800460300004b
:020000040000fa
:04006c004603000047
:020000040000fa
:040070004603000043
:020000040000fa
:04007400460300003f
:020000040000fa
:04007800460300003b
:020000040000fa
:04007c004603000037
:020000040000fa
:040080004603000033
:020000040000fa
:04008400460300002f
:020000040000fa
:04008800460300002b
:020000040000fa
:04008c004603000027
:020000040000fa
:040090004603000023
:020000040000fa
:04009400460300001f
:020000040000fa
:04009800460300001b
:020000040000fa
:04009c004603000017
:020000040000fa
:0400a0004603000013
:020000040000fa
:0400a400460300000f
:020000040000fa
:0400a800460300000b
:020000040000fa
:0400ac004603000007
:020000040000fa
:0400b0004603000003
:020000040000fa
:0400b40046030000ff
:020000040000fa
:0400b80046030000fb
:020000040000fa
:0400bc0046030000f7
:020000040000fa
:0400c00046030000f3
:020000040000fa
:0400c40046030000ef
:020000040000fa
:0400c80046030000eb
:020000040000fa
:0400cc0046030000e7
:020000040000fa
:0400d00046030000e3
:020000040000fa
:0400d40046030000df
:020000040000fa
:0400d80046030000db
:020000040000fa
:0400dc0046030000d7
:020000040000fa
:0400e00046030000d3
:020000040000fa
:0400e40046030000cf
:020000040000fa
:0400e80046030000cb
:020000040000fa
:0400ec0046030000c7
:020000040000fa
:0400f00046030000c3
:020000040000fa
:0400f40046030000bf
:020000040000fa
:0400f80046030000bb
:020000040000fa
:0400fc0046030000b7
:020000040000fa
:0401000046030000b2
:020000040000fa
:0401040046030000ae
:020000040000fa
:0401080046030000aa
:020000040000fa
:04010c0046030000a6
:020000040000fa
:0401100046030000a2
:020000040000fa
:04011400460300009e
:020000040000fa
:04011800460300009a
:020000040000fa
:04011c004603000096
:020000040000fa
:040120004603000092
:020000040000fa
:04012400460300008e
:020000040000fa
:04012800460300008a
:020000040000fa
:04012c004603000086
:020000040000fa
:040130004603000082
:020000040000fa
:04013400460300007e
:020000040000fa
:04013800460300007a
:020000040000fa
:04013c004603000076
:020000040000fa
:040140004603000072
:020000040000fa
:04014400460300006e
:020000040000fa
:04014800460300006a
:020000040000fa
:0402080046030000a9
:020000040000fa
:04020c0046030000a5
:020000040000fa
:0402100046030000a1
:020000040000fa
:04021400460300009d
:020000040000fa
:040218004603000099
:020000040000fa
:04021c004603000095
:020000040000fa
:040220004603000091
:020000040000fa
:04022400460300008d
:020000040000fa
:040228004603000089
:020000040000fa
:04022c004603000085
:020000040000fa
:040230004603000081
:020000040000fa
:04023400460300007d
:020000040000fa
:040238004603000079
:020000040000fa
:04023c004603000075
:020000040000fa
:040240004603000071
:020000040000fa
:04024400460300006d
:020000040000fa
:040248004603000069
:020000040000fa
:04024c004603000065
:020000040000fa
:040250004603000061
:020000040000fa
:04025400460300005d
:020000040000fa
:040258004603000059
:020000040000fa
:04025c004603000055
:020000040000fa
:040260004603000051
:020000040000fa
:04026400460300004d
:020000040000fa
:040268004603000049
:020000040000fa
:04026c004603000045
:020000040000fa
:040270004603000041
:020000040000fa
:04027400460300003d
:020000040000fa
:040278004603000039
:020000040000fa
:04027c004603000035
:020000040000fa
:040280004603000031
:020000040000fa
:04028400460300002d
:020000040000fa
:040288004603000029
:020000040000fa
:04028c004603000025
:020000040000fa
:040290004603000021
:020000040000fa
:04029400460300001d
:020000040000fa
:040298004603000019
:020000040000fa
:04029c004603000015
:020000040000fa
:0402a0004603000011
:020000040000fa
:0402a400460300000d
:020000040000fa
:0402a8004603000009
:020000040000fa
:0402ac004603000005
:020000040000fa
:0402b0004603000001
:020000040000fa
:0402b40046030000fd
:020000040000fa
:0402b80046030000f9
:020000040000fa
:0402bc0046030000f5
:020000040000fa
:0402c00046030000f1
:020000040000fa
:0402c40046030000ed
:020000040000fa
:0402c80046030000e9
:020000040000fa
:0402cc0046030000e5
:020000040000fa
:0402d00046030000e1
:020000040000fa
:0402d40046030000dd
:020000040000fa
:0402d80046030000d9
:020000040000fa
:0402dc0046030000d5
:020000040000fa
:0402e00046030000d1
:020000040000fa
:0402e40046030000cd
:020000040000fa
:0402e80046030000c9
:020000040000fa
:0402ec0046030000c5
:020000040000fa
:0402f00046030000c1
:020000040000fa
:0402f40046030000bd
:020000040000fa
:0402f80046030000b9
:020000040000fa
:0402fc0046030000b5
:020000040000fa
:0403000046030000b0
:020000040000fa
:0403040046030000ac
:020000040000fa
:0403080046030000a8
:020000040000fa
:04030c0046030000a4
:020000040000fa
:0403100046030000a0
:020000040000fa
:04031400460300009c
:020000040000fa
:040318004603000098
:020000040000fa
:04031c004603000094
:020000040000fa
:040320004603000090
:020000040000fa
:04032400460300008c
:020000040000fa
:040328004603000088
:020000040000fa
:04032c004603000084
:020000040000fa
:040330004603000080
:020000040000fa
:04033400460300007c
:020000040000fa
:040338004603000078
:020000040000fa
:04033c004603000074
:020000040000fa
:040340004603000070
:020000040000fa
:04034400460300006c
:020000040000fa
:040348004603000068
:020000040000fa
:100400000f8120000e7f22000e01880000000000f6
:10041000000020000000e000020032000001200087
:1004200020028800140007009a0007000000e00086
:1004300003003a00407c2000010020000200370049
:100440000000200001002000810f70000100320038
:1004500014000700000020000000e000020032004d
:100460000000020000000000de06020000000000a4
:100470000040da000000fe004440a9000000200017
:100480000000e0000300320000002000a00188000e
:100490004440a800000006008a1f78008b1f7800e7
:1004a0000000060091018800800478000000eb0045
:1004b0001a003700e284440032a0b4009905ba0063
:1004c000e284440032a0b4009906ba00e2844400f9
:1004d00032a0b4000006eb00476fde00fd07b2005b
:1004e000636ce10003003a00ebff07000000eb0043
:1004f0000a003700606ce10004003a00005deb0088
:100500008b05e900fdff3e00040037006168e10053
:10051000010032000086eb000b00070019c7ba008b
:100520001905ba000e04e00003003a000a00e000da
:10053000e0ff3a0000000600fe07b2009e018800be
:100540008a047800f5ff3700395dba008b05e900b1
:100550000c003200295dba008b05e900080032006a
:100560000c00e00003003a00e284440032a0b40032
:10057000f5ff370019ddba008b05e900faff3a00f4
:100580008904e800e184440032a0b40000000600c1
:10059000801f78003400f80000002000a0018800cf
:1005a0000000fa00504080000000e8005040880041
:1005b00084e0a9000080fa003400f9004f007800c0
:1005c000004006003600f800809fbe00829fbe00fb
:1005d000849fbe00869fbe00889fbe003400f80046
:1005e00000002000a00188000400fa008420a90077
:1005f000000a80006103b800504080006101b8002b
:10060000100880008000eb00009ab9000402780016
:10061000028cb90088027800050242000010b80080
:100620000102420084007800001f430001974b0044
:10063000d0072000010020001e01be00800f5100e5
:10064000818f5900080036000a28ef000621ef00cc
:100650001e01be0062408800734088006040800038
:1006600071408000210107000080fa003400f90089
:100670004f04be004f03be004f02be004f01be003c
:100680004f00be003600f900004006000040da00ce
:100690000000fe0000000500889fbe008a9fbe008b
:1006a0008c1f7800960007009d00330003866c00c5
:1006b0006450e1002e0032006420e100330032007b
:1006c0006150e1002f0032006120e1003100320072
:1006d00085855500eb07b0000900200008042000c4
:1006e000050037000804440089844c000a003100ea
:1006f0000603430087834b000001530081815b00a8
:10070000f8ff33000203be000800a0000804440004
:1007100089844c00f6ff3900c639dd00830173007f
:1007200001003200130020008904d1000884d300a6
:100730000998a300050032000800a7000300a000ec
:100740008904d1000884d3008b05e8008904d10016
:100750000884d3000001eb000281d2002d000700c5
:1007600001f0a1000cf0a70001f0a0007500370017
:100770006420e100770032000801be000200be00e4
:10078000f7ff37006120e100720032006000b8001e
:10079000f3ff37000000200001f82700f0ff3700ca
:1007a0000001be00410007000470a70003f0a10093
:1007b00003f8a30013003a006509b10010003200ed
:1007c000090035006928e100020035000100280019
:1007d0000000050000004000818048008502e9001b
:1007e000fcff3a0000000600f88f420005003500cb
:1007f0008100d1000080d3008502e800fcff3a00b0
:10080000000006008000eb00000005006011b80049
:100810008700370081002000618055000b003d00fb
:100820000b00200061fe2f000100e1001d003400dc
:1008300082817100610164008904d1000884d300c1
:100840000000e800faff3a00710020006100640037
:1008500003007000020060000900320061044400df
:10086000e0844c000988a500050032008b05e800f3
:100870006808e10002003a008904d1000884d3002e
:10088000f20f20000258e10005003d00c75ddd00c9
:10089000f907b200898075000800780000000600a2
:1008a0000bf827008b00780000000500c70ade0067
:1008b000f107b200f50fb20008003200e1cf4200ac
:1008c000020032000170a00024000500810f7000ba
:1008d000010032000408050044000500810f70008b
:1008e00002003a00140005008502e9000000400003
:1008f00081c04800fcff3b000170a00024000500ff
:100900000004be00e9ff07000003be000405be00ae
:100910000200be00e5ff0700844f750000000600de
:100920000200be006450e100050036006420e100d2
:10093000020036000968a30001003a000800be006a
:100940000160a0004f0678004f05be004f04be00b6
:1009500000000600f0ff2f00f1ff2700f9ff37002d
:10096000889fbe008a9fbe008c1f7800e4ff0700ae
:10097000ebff330003866c006450e100240032007a
:100980006420e100270032006150e10022003200c3
:100990006120e100210032008b854200eb07b100ad
:1009a0000134b800003ab8000804420089844a00c3
:1009b000013ab8000030b8008880400009014a00c0
:1009c000040033000000400081804800020149001b
:1009d0008b05e900c909dd008301700001003200c8
:1009e00013002000c814de004814dd004709de00b3
:1009f0001200b200c808de000884700085ff0700fe
:100a000001f0a1000cf0a70001f0a000cdff37001d
:100a10006120e100cfff32000801be000200be00ed
:100a2000f7ff37006150e100fcff3a00c9ff3700d3
:100a3000889fbe008a9fbe00008270000402710081
:100a400004827100260032000004be000200be00d5
:100a50006011b8006b092000950220000182cf00d0
:100a60000a0039000541b1000082cf0007003900bb
:100a70000541b1000982cf00040039000541b100f1
:100a80000882cf00010039000541b1000542520043
:100a9000120032000a003b00828171006101640093
:100aa0008100d1000080d3008984d3000884d30062
:100ab0008b05e8000442e800f7ff3a000700370022
:100ac0000804440089844c000000480081804800ec
:100ad0008b05e9000442e900f9ff3a004dff0700e9
:0c0ae0004f05be004f04be0000000600e1
:020000040000fa
:100aec000400fa00008fbe00404080008000e80047
:100afc0010002800008060000000e00004003d00b1
:100b0c000000e900e1ff2f00008070000000e80009
:100b1c00018020004200dd00008040003e1878007b
:100b2c002e107800404080008000e8001000280063
:100b3c00008060000000e00004003d000000e900bf
:100b4c00e1ff2f00008070000000e80040408800aa
:100b5c000080fa00000006000000fa00404080000f
:100b6c00018020004200dd00008040001000be002b
:100b7c000080fa00000006000400fa00889fbe0006
:100b8c00008fbe0002002000031a24001e00be00cd
:100b9c00befe07000004be00700880008000eb0061
:100bac0017ff07000001be000800be0069ff070028
:100bbc00f8fe070000007800000c88004f04be000f
:100bcc000080fa00000006000000fa001221ef007d
:100bdc0000c42900700888000a21ef008500a900d4
:100bec001281a80012a1a90013e1a800113a8000fb
:100bfc00f00b2000008160006004200071052000d3
:100c0c00237420008049780081497800824978005b
:100c1c003136800000fe2f00008060002001b30000
:100c2c0030368800103a8000000178000260a00085
:100c3c006004200071052000237420008049780096
:100c4c0081497800824978008421ef00204d2000f2
:100c5c00100c8800204d2000000c8800210c800016
:100c6c0080ff2f00008060006000b300200c880023
:100c7c008461a8000080fa00000006000000fa0061
:100c8c001021ef000080eb00600888000621ef00c7
:100c9c0084e0a90094e0a80031058000f0ff280052
:100cac008080600000002300010070003005880087
:100cbc00810880000003200001007000800888007b
:100ccc006ac0a800113a8000f00b2000008160007f
:100cdc0060042000710520002374200080497800f6
:100cec0081497800824978007134800000fe2f0021
:100cfc00008060000030a00070348800103a800042
:100d0c00000178000260a000600420007105200042
:100d1c00237420008049780081497800824978004a
:100d2c004221ef0042e1a8009420a800110a8000a3
:100d3c0080ff2f00008060000010a000100a8800c7
:100d4c00110a8000f0f92f0000806000100a880062
:100d5c0021058000f0f82f00808060000003200047
:100d6c0001007000200588008420a90084e0a900ff
:100d7c0011e1a8000080fa00000006000000fa0053
:100d8c00213a8000f08f2f0000806000203a88000c
:100d9c00f0ff290060198800c8c2a900c902a80088
:100dac0089ff0700b5ff07000080fa00000006006d
:100dbc000e00fa00889fbe00f0ff0700a0992900e2
:100dcc0091f923006cff07006000b8001007980031
:100ddc00210798000000eb00000f78006000b800bd
:100dec0030079800410798006000b8005007980041
:100dfc006107980005003700000000000300370071
:100e0c0000000000010037000000000030088000e6
:100e1c006103b800504080006101b8006008800098
:100e2c008000eb00009ab90004027800028cb90033
:100e3c0088027800050242000010b800010242004e
:100e4c008400780006004000878048001007980056
:100e5c002107980040408000018020004200dd0006
:100e6c00008040001001be00320798004307980034
:100e7c00404080008000e8001000280000806000e6
:100e8c000000e00004003d000000e900e1ff2f003d
:100e9c00008070000000e800018020004200dd00ae
:100eac00008040001001be005207980063079800b4
:100ebc001e0078000000e000130032001e019000bc
:100ecc00ae01900080842e0011002000800f510094
:100edc00818f59000c003600a099290091f923004c
:100eec0025ff07000000eb00000f780000d4200065
:100efc0031002000fafe070000d420003100200051
:100f0c00f7fe0700c1ff37001e0078000000e0006c
:100f1c00b9ff3a003e019000ce01900090d0230022
:100f2c0001002000800f5100818f5900b4ff3e005a
:100f3c005e019000ee01900090d023000100200093
:100f4c00800f5100818f5900afff3e006066260074
:100f5c0061fe230008ff070010002000000f78003e
:100f6c0000d4200031002000ddfe070000d420005a
:0c0f7c0031002000dafe0700a4ff37005f
:020000040000fa
:100f8800000800000800000002000000400d0300f7
:100f980000400d00030000000808000008000000e1
:080fa800000000000000000041
:020000040000fa
:020000040001f9
:0457f8000ff90000a5
:020000040000fa
:020000040001f9
:0457fc007f3f0000eb
:00000001FF
